:100000000C9434000C943E000C943E000C943E0082
:100010000C943E000C943E000C943E000C943E0068
:100020000C943E000C943E000C943E000C943E0058
:100030000C943E000C943E000C943E000C943E0048
:100040000C943E000C943E000C943E000C943E0038
:100050000C943E000C943E000C943E000C943E0028
:100060000C943E000C943E0011241FBECFEFD8E04C
:10007000DEBFCDBF0E9489000C9492000C9400005A
:10008000009721F48CEF8BB915B808958130910554
:1000900019F488E18BB908958230910529F48CE632
:1000A0008BB981E085B908958330910529F48CE3FB
:1000B0008BB981E085B908958430910529F488E9E8
:1000C0008BB981E085B908958530910529F484EBD9
:1000D0008BB981E085B908958630910529F484EFC4
:1000E0008BB981E085B908958730910519F48CE1C9
:1000F0008BB908958830910529F48CEF8BB981E094
:1001000085B90895099721F48CEB8BB981E085B905
:1001100008958CEF8AB981E084B988E090E00E946C
:080120004000FBCFF894FFCF73
:00000001FF
