:100000000C9434000C943E000C943E000C943E0082
:100010000C943E000C943E000C943E000C943E0068
:100020000C943E000C943E000C943E000C943E0058
:100030000C943E000C943E000C943E000C943E0048
:100040000C943E000C943E000C943E000C943E0038
:100050000C943E000C943E000C943E000C943E0028
:100060000C943E000C943E0011241FBECFEFD8E04C
:10007000DEBFCDBF0E9440000C948D000C940000A8
:100080008CEF8AB981E084B98CEF8BB915B82FEF6A
:1000900039E688E1215030408040E1F700C000009F
:1000A00088E18BB99FEF29E638E19150204030403C
:1000B000E1F700C000008CE68BB981E085B99FEFC5
:1000C00029E638E1915020403040E1F700C00000BF
:1000D0009CE39BB985B99FEF29E638E19150204018
:1000E0003040E1F700C0000098E99BB985B99FEF67
:1000F00029E638E1915020403040E1F700C000008F
:1001000094EB9BB985B98FEF99E628E18150904037
:0E0110002040E1F700C00000B7CFF894FFCF09
:00000001FF
