:100000000C9434000C943E000C943E000C943E0082
:100010000C943E000C943E000C943E000C943E0068
:100020000C943E000C943E000C943E000C943E0058
:100030000C943E000C943E000C943E000C943E0048
:100040000C943E000C943E000C943E000C943E0038
:100050000C943E000C943E000C943E000C943E0028
:100060000C943E000C943E0011241FBECFEFD8E04C
:10007000DEBFCDBF0E9440000C94CF000C94000066
:100080008CEF8AB981E084B99CEF9BB985B115B832
:100090002FEF33ED80E3215030408040E1F700C086
:1000A000000088E18BB985B115B82FEF33ED80E3FF
:1000B000215030408040E1F700C000008CE68BB951
:1000C00085B1816085B92FEF33ED80E32150304059
:1000D0008040E1F700C000008CE38BB985B18160FE
:1000E00085B92FEF33ED80E3215030408040E1F7B8
:1000F00000C0000088E98BB985B1816085B92FEF18
:1001000033ED80E3215030408040E1F700C0000033
:1001100084EB8BB985B1816085B92FEF33ED80E336
:10012000215030408040E1F700C0000084EF8BB9DF
:1001300085B1816085B92FEF33ED80E321503040E8
:100140008040E1F700C000008CE18BB925B181E06F
:10015000822785B92FEF33ED80E321503040804076
:10016000E1F700C000009BB985B1816085B99FEFC0
:1001700023ED30E3915020403040E1F700C0000013
:100180008CEB8BB985B1816085B98FEF93ED20E35E
:10019000815090402040E1F700C0000075CFF894F6
:0201A000FFCF8F
:00000001FF
